{
  "contractName": "Election",
  "abi": [
    {
      "anonymous": false,
      "inputs": [
        {
          "indexed": false,
          "internalType": "string",
          "name": "message",
          "type": "string"
        },
        {
          "indexed": false,
          "internalType": "uint256",
          "name": "time",
          "type": "uint256"
        }
      ],
      "name": "CancelledEvent",
      "type": "event"
    },
    {
      "constant": true,
      "inputs": [],
      "name": "STATE",
      "outputs": [
        {
          "internalType": "enum Election.election_state",
          "name": "",
          "type": "uint8"
        }
      ],
      "payable": false,
      "stateMutability": "view",
      "type": "function"
    },
    {
      "constant": true,
      "inputs": [
        {
          "internalType": "uint256",
          "name": "",
          "type": "uint256"
        }
      ],
      "name": "candidates",
      "outputs": [
        {
          "internalType": "bytes25",
          "name": "",
          "type": "bytes25"
        }
      ],
      "payable": false,
      "stateMutability": "view",
      "type": "function"
    },
    {
      "constant": true,
      "inputs": [],
      "name": "election_EndDate",
      "outputs": [
        {
          "internalType": "uint256",
          "name": "",
          "type": "uint256"
        }
      ],
      "payable": false,
      "stateMutability": "view",
      "type": "function"
    },
    {
      "constant": false,
      "inputs": [],
      "name": "register",
      "outputs": [
        {
          "internalType": "bool",
          "name": "",
          "type": "bool"
        }
      ],
      "payable": false,
      "stateMutability": "nonpayable",
      "type": "function"
    },
    {
      "constant": false,
      "inputs": [
        {
          "internalType": "bytes25",
          "name": "_cadidate",
          "type": "bytes25"
        }
      ],
      "name": "vote",
      "outputs": [
        {
          "internalType": "bool",
          "name": "",
          "type": "bool"
        }
      ],
      "payable": false,
      "stateMutability": "nonpayable",
      "type": "function"
    },
    {
      "constant": false,
      "inputs": [],
      "name": "cancel_election",
      "outputs": [
        {
          "internalType": "bool",
          "name": "",
          "type": "bool"
        }
      ],
      "payable": false,
      "stateMutability": "nonpayable",
      "type": "function"
    }
  ],
  "bytecode": "0x608060405234801561001057600080fd5b50610222806100206000396000f3fe608060405234801561001057600080fd5b50600436106100615760003560e01c806212bd29146100665780631aa3a008146100885780633477ee2e146100aa5780636789034c14610100578063c486456c1461011e578063d6cfa3b71461014a575b600080fd5b61006e61019a565b604051808215151515815260200191505060405180910390f35b61009061019f565b604051808215151515815260200191505060405180910390f35b6100d6600480360360208110156100c057600080fd5b81019080803590602001909291905050506101a4565b604051808266ffffffffffffff191666ffffffffffffff1916815260200191505060405180910390f35b6101086101cd565b6040518082815260200191505060405180910390f35b6101266101d3565b6040518082600181111561013657fe5b60ff16815260200191505060405180910390f35b6101806004803603602081101561016057600080fd5b81019080803566ffffffffffffff191690602001909291905050506101e6565b604051808215151515815260200191505060405180910390f35b600090565b600090565b600281815481106101b157fe5b906000526020600020016000915054906101000a900460381b81565b60015481565b600660009054906101000a900460ff1681565b600091905056fea265627a7a72315820d78c1150fa8455a6fa400eea72a5a7b54d6712965825c129b7d065d87710df9a64736f6c63430005100032",
  "source": "pragma solidity ^0.5.16;\r\n\r\ncontract Election {\r\n\r\n\taddress internal election_owner;\r\n\tuint256 public election_EndDate;\r\n\r\n\r\n\tenum election_state{\r\n\t\tSTARTED,CANCELLED\r\n\t}\r\n\r\n\t//\r\n\t//2-D arrays are not a thing, I forgot and we need to fix this\r\n\t//\r\n\tbytes25[] public candidates;\r\n\r\n\t//mapping from candidate name to their number of votes\r\n\tmapping(bytes25 => uint256) internal votes_byCandidate;\r\n\t//mapping that returns true if the address is registered\r\n\tmapping(address => bool) internal registered_voters;\r\n\t//mapping that returns true if the address still has a vote to cast\r\n\tmapping(address => bool) internal can_vote;\r\n\r\n\telection_state public STATE;\r\n\r\n\tmodifier ongoing_election(){\r\n\t\trequire(now < election_EndDate, \"Sorry, the election has ended\");\r\n\t\t_;\r\n\t}\r\n\r\n\tmodifier election_ended(){\r\n\t\trequire(now >= election_EndDate, \"Sorry, the election is still ongoing\");\r\n\t\t_;\r\n\t}\r\n\r\n\tmodifier only_owner(){\r\n\t\trequire(msg.sender == election_owner);\r\n\t\t_;\r\n\t}\r\n\r\n\tmodifier only_registered_voter(){\r\n\t\trequire(registered_voters[msg.sender], \"Sorry, you are not registered to vote in this election\");\r\n\t\t_;\r\n\t}\r\n\r\n\tmodifier can_still_vote(){\r\n\t\trequire(can_vote[msg.sender], \"Sorry, you have already voted. You can't vote twice\");\r\n\t\t_;\r\n\t}\r\n\r\n\tmodifier not_registered(){\r\n\t\trequire(registered_voters[msg.sender] == false, \"You are already registered\");\r\n\t\t_;\r\n\t}\r\n\r\n\tfunction register() public returns (bool){}\r\n\tfunction vote(bytes25 _cadidate) public returns (bool){}\r\n\tfunction cancel_election() external returns(bool){}\r\n\r\n\tevent CancelledEvent(string message, uint256 time);\r\n\r\n}\r\n\r\n\r\ncontract MyElection is Election {\r\n\r\n\tfunction () external {\r\n\t}\r\n\r\n\tconstructor (uint _electionEnd, address _owner) public {\r\n\t\telection_owner = _owner;\r\n\t\telection_EndDate = now + _electionEnd * 1 hours;\r\n\t\tSTATE = election_state.STARTED;\r\n\t\tcandidates = [bytes25(\"Donald Trump\"), bytes25(\"Joe Biden\"), bytes25(\"Bernie Sanders\")];\r\n\t}\r\n\r\n\tfunction register() public not_registered returns (bool){\r\n\t\tregistered_voters[msg.sender] = true;\r\n\t\tcan_vote[msg.sender] = true;\r\n\r\n\t\treturn true;\r\n\t}\r\n\r\n\tfunction vote(bytes25 _candidate) public only_registered_voter can_still_vote returns (bool){\r\n\t\tvotes_byCandidate[_candidate] += 1;\r\n\t\tcan_vote[msg.sender] = false;\r\n\t\t\r\n\t\treturn true;\r\n\t}\r\n\r\n\tfunction add_candidate(bytes25 _candidate) public only_owner returns(bool){\r\n\t\tbool already_added = false;\r\n\t\tfor(uint i=0; i<candidates.length; i++) {\r\n\t\t\tif (_candidate == candidates[i]) {\r\n\t\t\t\talready_added = true;\r\n\t\t\t}\r\n\t\t}\r\n\t\trequire(!already_added, \"This candidate has already been added\");\r\n\t\tcandidates.push(_candidate);\r\n\t\treturn true;\r\n\t}\r\n\r\n\tfunction get_candidates() external view returns (bytes25[] memory){\r\n\t\treturn candidates;\r\n\t}\r\n\r\n\tfunction get_FinalVotes() external view election_ended returns (bytes25[] memory, uint256[] memory){\r\n\t\tuint256[] memory votes = new uint256[](candidates.length);\r\n\t\tfor(uint i=0; i<candidates.length; i++) {\r\n\t\t\tvotes[i] = votes_byCandidate[candidates[i]];\r\n\t\t}\r\n\t\t// returns both the list of candidates and the votes for each candidate in order\r\n\t\treturn (candidates, votes);\r\n\t}\r\n\r\n\tfunction cancel_election() external only_owner ongoing_election returns (bool){\r\n\t\tSTATE = election_state.CANCELLED;\r\n\t\telection_EndDate = now;\r\n\t\temit CancelledEvent(\"Election cancelled\", now);\r\n\t\treturn true;\r\n\t}\r\n\t\r\n\tfunction destruct_election() external only_owner returns (bool){\r\n\t    require(now >= election_EndDate, \"You can't destruct the contract, The election is still going\");\r\n\t    address payable _election_owner = address(uint160(election_owner));\r\n\t    selfdestruct(_election_owner);\r\n\t    return true;\r\n\t}\r\n\r\n}\r\n",
  "sourcePath": "C:\\Users\\gotbw\\Desktop\\New folder\\ElectionChain\\election-chain\\contracts\\election.sol",
  "compiler": {
    "name": "solc",
    "version": "0.5.16+commit.9c3226ce.Emscripten.clang"
  },
  "schemaVersion": "3.0.23",
  "updatedAt": "2020-05-03T23:39:10.656Z",
  "devdoc": {
    "methods": {}
  },
  "userdoc": {
    "methods": {}
  }
}