{
  "contractName": "ElectionHelper",
  "abi": [
    {
      "anonymous": false,
      "inputs": [
        {
          "indexed": false,
          "internalType": "string",
          "name": "message",
          "type": "string"
        },
        {
          "indexed": false,
          "internalType": "uint256",
          "name": "time",
          "type": "uint256"
        }
      ],
      "name": "CancelledEvent",
      "type": "event"
    },
    {
      "constant": true,
      "inputs": [],
      "name": "STATE",
      "outputs": [
        {
          "internalType": "enum Election.election_state",
          "name": "",
          "type": "uint8"
        }
      ],
      "payable": false,
      "stateMutability": "view",
      "type": "function"
    },
    {
      "constant": false,
      "inputs": [],
      "name": "cancel_election",
      "outputs": [
        {
          "internalType": "bool",
          "name": "",
          "type": "bool"
        }
      ],
      "payable": false,
      "stateMutability": "nonpayable",
      "type": "function"
    },
    {
      "constant": true,
      "inputs": [
        {
          "internalType": "uint256",
          "name": "",
          "type": "uint256"
        }
      ],
      "name": "candidates",
      "outputs": [
        {
          "internalType": "bytes25",
          "name": "",
          "type": "bytes25"
        }
      ],
      "payable": false,
      "stateMutability": "view",
      "type": "function"
    },
    {
      "constant": true,
      "inputs": [],
      "name": "election_EndDate",
      "outputs": [
        {
          "internalType": "uint256",
          "name": "",
          "type": "uint256"
        }
      ],
      "payable": false,
      "stateMutability": "view",
      "type": "function"
    },
    {
      "constant": false,
      "inputs": [],
      "name": "register",
      "outputs": [
        {
          "internalType": "bool",
          "name": "",
          "type": "bool"
        }
      ],
      "payable": false,
      "stateMutability": "nonpayable",
      "type": "function"
    },
    {
      "constant": false,
      "inputs": [
        {
          "internalType": "bytes25",
          "name": "_cadidate",
          "type": "bytes25"
        }
      ],
      "name": "vote",
      "outputs": [
        {
          "internalType": "bool",
          "name": "",
          "type": "bool"
        }
      ],
      "payable": false,
      "stateMutability": "nonpayable",
      "type": "function"
    }
  ],
  "bytecode": "0x608060405234801561001057600080fd5b50610222806100206000396000f3fe608060405234801561001057600080fd5b50600436106100615760003560e01c806212bd29146100665780631aa3a008146100885780633477ee2e146100aa5780636789034c14610100578063c486456c1461011e578063d6cfa3b71461014a575b600080fd5b61006e61019a565b604051808215151515815260200191505060405180910390f35b61009061019f565b604051808215151515815260200191505060405180910390f35b6100d6600480360360208110156100c057600080fd5b81019080803590602001909291905050506101a4565b604051808266ffffffffffffff191666ffffffffffffff1916815260200191505060405180910390f35b6101086101cd565b6040518082815260200191505060405180910390f35b6101266101d3565b6040518082600181111561013657fe5b60ff16815260200191505060405180910390f35b6101806004803603602081101561016057600080fd5b81019080803566ffffffffffffff191690602001909291905050506101e6565b604051808215151515815260200191505060405180910390f35b600090565b600090565b600281815481106101b157fe5b906000526020600020016000915054906101000a900460381b81565b60015481565b600660009054906101000a900460ff1681565b600091905056fea265627a7a7231582005d9dc6ca7612933cc32fdf7f4f5887dbff5740daed16748affdfd214effea6c64736f6c63430005100032",
  "source": "pragma solidity >=0.5.0 <0.6.0;\r\n\r\nimport \"./election.sol\";\r\n\r\ncontract ElectionHelper is Election {\r\n\r\n}",
  "sourcePath": "C:\\Users\\gotbw\\Desktop\\New folder\\ElectionChain\\election-chain\\contracts\\electionhelper.sol",
  "compiler": {
    "name": "solc",
    "version": "0.5.16+commit.9c3226ce.Emscripten.clang"
  },
  "schemaVersion": "3.0.23",
  "updatedAt": "2020-05-03T23:39:10.668Z",
  "devdoc": {
    "methods": {}
  },
  "userdoc": {
    "methods": {}
  }
}