{
  "contractName": "MyElection",
  "abi": [
    {
      "inputs": [
        {
          "internalType": "uint256",
          "name": "_electionEnd",
          "type": "uint256"
        },
        {
          "internalType": "address",
          "name": "_owner",
          "type": "address"
        }
      ],
      "payable": false,
      "stateMutability": "nonpayable",
      "type": "constructor"
    },
    {
      "anonymous": false,
      "inputs": [
        {
          "indexed": false,
          "internalType": "string",
          "name": "message",
          "type": "string"
        },
        {
          "indexed": false,
          "internalType": "uint256",
          "name": "time",
          "type": "uint256"
        }
      ],
      "name": "CancelledEvent",
      "type": "event"
    },
    {
      "payable": true,
      "stateMutability": "payable",
      "type": "fallback"
    },
    {
      "constant": true,
      "inputs": [],
      "name": "STATE",
      "outputs": [
        {
          "internalType": "enum Election.election_state",
          "name": "",
          "type": "uint8"
        }
      ],
      "payable": false,
      "stateMutability": "view",
      "type": "function"
    },
    {
      "constant": true,
      "inputs": [
        {
          "internalType": "uint256",
          "name": "",
          "type": "uint256"
        }
      ],
      "name": "candidates",
      "outputs": [
        {
          "internalType": "bytes25",
          "name": "",
          "type": "bytes25"
        }
      ],
      "payable": false,
      "stateMutability": "view",
      "type": "function"
    },
    {
      "constant": true,
      "inputs": [],
      "name": "election_EndDate",
      "outputs": [
        {
          "internalType": "uint256",
          "name": "",
          "type": "uint256"
        }
      ],
      "payable": false,
      "stateMutability": "view",
      "type": "function"
    },
    {
      "constant": false,
      "inputs": [],
      "name": "register",
      "outputs": [
        {
          "internalType": "bool",
          "name": "",
          "type": "bool"
        }
      ],
      "payable": false,
      "stateMutability": "nonpayable",
      "type": "function"
    },
    {
      "constant": false,
      "inputs": [
        {
          "internalType": "bytes25",
          "name": "_candidate",
          "type": "bytes25"
        }
      ],
      "name": "vote",
      "outputs": [
        {
          "internalType": "bool",
          "name": "",
          "type": "bool"
        }
      ],
      "payable": false,
      "stateMutability": "nonpayable",
      "type": "function"
    },
    {
      "constant": false,
      "inputs": [
        {
          "internalType": "bytes25",
          "name": "_candidate",
          "type": "bytes25"
        }
      ],
      "name": "add_candidate",
      "outputs": [
        {
          "internalType": "bool",
          "name": "",
          "type": "bool"
        }
      ],
      "payable": false,
      "stateMutability": "nonpayable",
      "type": "function"
    },
    {
      "constant": true,
      "inputs": [],
      "name": "get_candidates",
      "outputs": [
        {
          "internalType": "bytes25[]",
          "name": "",
          "type": "bytes25[]"
        }
      ],
      "payable": false,
      "stateMutability": "view",
      "type": "function"
    },
    {
      "constant": true,
      "inputs": [],
      "name": "get_FinalVotes",
      "outputs": [
        {
          "internalType": "bytes25[]",
          "name": "",
          "type": "bytes25[]"
        },
        {
          "internalType": "uint256[]",
          "name": "",
          "type": "uint256[]"
        }
      ],
      "payable": false,
      "stateMutability": "view",
      "type": "function"
    },
    {
      "constant": false,
      "inputs": [],
      "name": "cancel_election",
      "outputs": [
        {
          "internalType": "bool",
          "name": "",
          "type": "bool"
        }
      ],
      "payable": false,
      "stateMutability": "nonpayable",
      "type": "function"
    },
    {
      "constant": false,
      "inputs": [],
      "name": "destruct_election",
      "outputs": [
        {
          "internalType": "bool",
          "name": "",
          "type": "bool"
        }
      ],
      "payable": false,
      "stateMutability": "nonpayable",
      "type": "function"
    }
  ],
  "bytecode": "0x608060405234801561001057600080fd5b506040516110c93803806110c98339818101604052604081101561003357600080fd5b810190808051906020019092919080519060200190929190505050806000806101000a81548173ffffffffffffffffffffffffffffffffffffffff021916908373ffffffffffffffffffffffffffffffffffffffff160217905550610e10820242016001819055506000600660006101000a81548160ff021916908360018111156100ba57fe5b021790555060405180606001604052807f446f6e616c64205472756d70000000000000000000000000000000000000000066ffffffffffffff191666ffffffffffffff191681526020017f4a6f6520426964656e000000000000000000000000000000000000000000000066ffffffffffffff191666ffffffffffffff191681526020017f4265726e69652053616e6465727300000000000000000000000000000000000066ffffffffffffff191666ffffffffffffff1916815250600290600361018692919061018e565b505050610252565b8280548282559060005260206000209081019282156101f9579160200282015b828111156101f85782518260006101000a81548178ffffffffffffffffffffffffffffffffffffffffffffffffff021916908360381c0217905550916020019190600101906101ae565b5b509050610206919061020a565b5090565b61024f91905b8082111561024b57600081816101000a81549078ffffffffffffffffffffffffffffffffffffffffffffffffff021916905550600101610210565b5090565b90565b610e68806102616000396000f3fe6080604052600436106100905760003560e01c80636789034c116100595780636789034c14610273578063c486456c1461029e578063c9e429dd146102d7578063d6cfa3b714610306578063dab180f91461036357610090565b806212bd291461009257806309fab77f146100c15780631aa3a008146101755780633477ee2e146101a45780635d711db114610207575b005b34801561009e57600080fd5b506100a76103c0565b604051808215151515815260200191505060405180910390f35b3480156100cd57600080fd5b506100d6610534565b604051808060200180602001838103835285818151815260200191508051906020019060200280838360005b8381101561011d578082015181840152602081019050610102565b50505050905001838103825284818151815260200191508051906020019060200280838360005b8381101561015f578082015181840152602081019050610144565b5050505090500194505050505060405180910390f35b34801561018157600080fd5b5061018a6106c5565b604051808215151515815260200191505060405180910390f35b3480156101b057600080fd5b506101dd600480360360208110156101c757600080fd5b8101908080359060200190929190505050610843565b604051808266ffffffffffffff191666ffffffffffffff1916815260200191505060405180910390f35b34801561021357600080fd5b5061021c61086c565b6040518080602001828103825283818151815260200191508051906020019060200280838360005b8381101561025f578082015181840152602081019050610244565b505050509050019250505060405180910390f35b34801561027f57600080fd5b506102886108db565b6040518082815260200191505060405180910390f35b3480156102aa57600080fd5b506102b36108e1565b604051808260018111156102c357fe5b60ff16815260200191505060405180910390f35b3480156102e357600080fd5b506102ec6108f4565b604051808215151515815260200191505060405180910390f35b34801561031257600080fd5b506103496004803603602081101561032957600080fd5b81019080803566ffffffffffffff191690602001909291905050506109e9565b604051808215151515815260200191505060405180910390f35b34801561036f57600080fd5b506103a66004803603602081101561038657600080fd5b81019080803566ffffffffffffff19169060200190929190505050610bc6565b604051808215151515815260200191505060405180910390f35b60008060009054906101000a900473ffffffffffffffffffffffffffffffffffffffff1673ffffffffffffffffffffffffffffffffffffffff163373ffffffffffffffffffffffffffffffffffffffff161461041b57600080fd5b6001544210610492576040517f08c379a000000000000000000000000000000000000000000000000000000000815260040180806020018281038252601d8152602001807f536f7272792c2074686520656c656374696f6e2068617320656e64656400000081525060200191505060405180910390fd5b6001600660006101000a81548160ff021916908360018111156104b157fe5b0217905550426001819055507faf435910b1828c89aaa2f7b47c07e88d3e34cc7224a59f8e3f45844e811a00a9426040518080602001838152602001828103825260128152602001807f456c656374696f6e2063616e63656c6c656400000000000000000000000000008152506020019250505060405180910390a16001905090565b606080600154421015610592576040517f08c379a0000000000000000000000000000000000000000000000000000000008152600401808060200182810382526024815260200180610e106024913960400191505060405180910390fd5b60606002805490506040519080825280602002602001820160405280156105c85781602001602082028038833980820191505090505b50905060008090505b60028054905081101561064f5760036000600283815481106105ef57fe5b9060005260206000200160009054906101000a900460381b66ffffffffffffff191666ffffffffffffff191681526020019081526020016000205482828151811061063657fe5b60200260200101818152505080806001019150506105d1565b50600281818054806020026020016040519081016040528092919081815260200182805480156106b557602002820191906000526020600020905b8160009054906101000a900460381b66ffffffffffffff19168152602001906001019080831161068a575b5050505050915092509250509091565b6000801515600460003373ffffffffffffffffffffffffffffffffffffffff1673ffffffffffffffffffffffffffffffffffffffff16815260200190815260200160002060009054906101000a900460ff1615151461078c576040517f08c379a000000000000000000000000000000000000000000000000000000000815260040180806020018281038252601a8152602001807f596f752061726520616c7265616479207265676973746572656400000000000081525060200191505060405180910390fd5b6001600460003373ffffffffffffffffffffffffffffffffffffffff1673ffffffffffffffffffffffffffffffffffffffff16815260200190815260200160002060006101000a81548160ff0219169083151502179055506001600560003373ffffffffffffffffffffffffffffffffffffffff1673ffffffffffffffffffffffffffffffffffffffff16815260200190815260200160002060006101000a81548160ff0219169083151502179055506001905090565b6002818154811061085057fe5b906000526020600020016000915054906101000a900460381b81565b606060028054806020026020016040519081016040528092919081815260200182805480156108d157602002820191906000526020600020905b8160009054906101000a900460381b66ffffffffffffff1916815260200190600101908083116108a6575b5050505050905090565b60015481565b600660009054906101000a900460ff1681565b60008060009054906101000a900473ffffffffffffffffffffffffffffffffffffffff1673ffffffffffffffffffffffffffffffffffffffff163373ffffffffffffffffffffffffffffffffffffffff161461094f57600080fd5b6001544210156109aa576040517f08c379a000000000000000000000000000000000000000000000000000000000815260040180806020018281038252603c815260200180610dd4603c913960400191505060405180910390fd5b60008060009054906101000a900473ffffffffffffffffffffffffffffffffffffffff1690508073ffffffffffffffffffffffffffffffffffffffff16ff5b6000600460003373ffffffffffffffffffffffffffffffffffffffff1673ffffffffffffffffffffffffffffffffffffffff16815260200190815260200160002060009054906101000a900460ff16610a8d576040517f08c379a0000000000000000000000000000000000000000000000000000000008152600401808060200182810382526036815260200180610d796036913960400191505060405180910390fd5b600560003373ffffffffffffffffffffffffffffffffffffffff1673ffffffffffffffffffffffffffffffffffffffff16815260200190815260200160002060009054906101000a900460ff16610b2f576040517f08c379a0000000000000000000000000000000000000000000000000000000008152600401808060200182810382526033815260200180610d466033913960400191505060405180910390fd5b6001600360008466ffffffffffffff191666ffffffffffffff19168152602001908152602001600020600082825401925050819055506000600560003373ffffffffffffffffffffffffffffffffffffffff1673ffffffffffffffffffffffffffffffffffffffff16815260200190815260200160002060006101000a81548160ff02191690831515021790555060019050919050565b60008060009054906101000a900473ffffffffffffffffffffffffffffffffffffffff1673ffffffffffffffffffffffffffffffffffffffff163373ffffffffffffffffffffffffffffffffffffffff1614610c2157600080fd5b600080905060008090505b600280549050811015610c8b5760028181548110610c4657fe5b9060005260206000200160009054906101000a900460381b66ffffffffffffff19168466ffffffffffffff19161415610c7e57600191505b8080600101915050610c2c565b508015610ce3576040517f08c379a0000000000000000000000000000000000000000000000000000000008152600401808060200182810382526025815260200180610daf6025913960400191505060405180910390fd5b60028390806001815401808255809150509060018203906000526020600020016000909192909190916101000a81548178ffffffffffffffffffffffffffffffffffffffffffffffffff021916908360381c021790555050600191505091905056fe536f7272792c20796f75206861766520616c726561647920766f7465642e20596f752063616e277420766f7465207477696365536f7272792c20796f7520617265206e6f74207265676973746572656420746f20766f746520696e207468697320656c656374696f6e546869732063616e6469646174652068617320616c7265616479206265656e206164646564596f752063616e27742064657374727563742074686520636f6e74726163742c2054686520656c656374696f6e206973207374696c6c20676f696e67536f7272792c2074686520656c656374696f6e206973207374696c6c206f6e676f696e67a265627a7a72315820118a1a20d28b8212d1b03901e6edc0c3d5609d70936ee0ae39e6bcd96cf1018264736f6c63430005100032",
  "source": "pragma solidity >=0.5.0 <0.7.0;\r\n\r\ncontract Election {\r\n\r\n\taddress internal election_owner;\r\n\tuint256 public election_EndDate;\r\n\r\n\r\n\tenum election_state{\r\n\t\tSTARTED,CANCELLED\r\n\t}\r\n\r\n\t//\r\n\t//2-D arrays are not a thing, I forgot and we need to fix this\r\n\t//\r\n\tbytes25[] public candidates;\r\n\r\n\t//mapping from candidate name to their number of votes\r\n\tmapping(bytes25 => uint256) internal votes_byCandidate;\r\n\t//mapping that returns true if the address is registered\r\n\tmapping(address => bool) internal registered_voters;\r\n\t//mapping that returns true if the address still has a vote to cast\r\n\tmapping(address => bool) internal can_vote;\r\n\r\n\telection_state public STATE;\r\n\r\n\tmodifier ongoing_election(){\r\n\t\trequire(now < election_EndDate, \"Sorry, the election has ended\");\r\n\t\t_;\r\n\t}\r\n\r\n\tmodifier election_ended(){\r\n\t\trequire(now >= election_EndDate, \"Sorry, the election is still ongoing\");\r\n\t\t_;\r\n\t}\r\n\r\n\tmodifier only_owner(){\r\n\t\trequire(msg.sender == election_owner);\r\n\t\t_;\r\n\t}\r\n\r\n\tmodifier only_registered_voter(){\r\n\t\trequire(registered_voters[msg.sender], \"Sorry, you are not registered to vote in this election\");\r\n\t\t_;\r\n\t}\r\n\r\n\tmodifier can_still_vote(){\r\n\t\trequire(can_vote[msg.sender], \"Sorry, you have already voted. You can't vote twice\");\r\n\t\t_;\r\n\t}\r\n\r\n\tmodifier not_registered(){\r\n\t\trequire(registered_voters[msg.sender] == false, \"You are already registered\");\r\n\t\t_;\r\n\t}\r\n\r\n\tfunction register() public returns (bool){}\r\n\tfunction vote(bytes25 _cadidate) public returns (bool){}\r\n\tfunction cancel_election() external returns(bool){}\r\n\r\n\tevent CancelledEvent(string message, uint256 time);\r\n\r\n}\r\n\r\n\r\ncontract MyElection is Election {\r\n\r\n\tfunction () external payable {}\r\n\r\n\tconstructor (uint _electionEnd, address _owner) public {\r\n\t\telection_owner = _owner;\r\n\t\telection_EndDate = now + _electionEnd * 1 hours;\r\n\t\tSTATE = election_state.STARTED;\r\n\t\tcandidates = [bytes25(\"Donald Trump\"), bytes25(\"Joe Biden\"), bytes25(\"Bernie Sanders\")];\r\n\t}\r\n\r\n\tfunction register() public not_registered returns (bool){\r\n\t\tregistered_voters[msg.sender] = true;\r\n\t\tcan_vote[msg.sender] = true;\r\n\r\n\t\treturn true;\r\n\t}\r\n\r\n\tfunction vote(bytes25 _candidate) public only_registered_voter can_still_vote returns (bool){\r\n\t\tvotes_byCandidate[_candidate] += 1;\r\n\t\tcan_vote[msg.sender] = false;\r\n\t\t\r\n\t\treturn true;\r\n\t}\r\n\r\n\tfunction add_candidate(bytes25 _candidate) public only_owner returns(bool){\r\n\t\tbool already_added = false;\r\n\t\tfor(uint i=0; i<candidates.length; i++) {\r\n\t\t\tif (_candidate == candidates[i]) {\r\n\t\t\t\talready_added = true;\r\n\t\t\t}\r\n\t\t}\r\n\t\trequire(!already_added, \"This candidate has already been added\");\r\n\t\tcandidates.push(_candidate);\r\n\t\treturn true;\r\n\t}\r\n\r\n\tfunction get_candidates() external view returns (bytes25[] memory){\r\n\t\treturn candidates;\r\n\t}\r\n\r\n\tfunction get_FinalVotes() external view election_ended returns (bytes25[] memory, uint256[] memory){\r\n\t\tuint256[] memory votes = new uint256[](candidates.length);\r\n\t\tfor(uint i=0; i<candidates.length; i++) {\r\n\t\t\tvotes[i] = votes_byCandidate[candidates[i]];\r\n\t\t}\r\n\t\t// returns both the list of candidates and the votes for each candidate in order\r\n\t\treturn (candidates, votes);\r\n\t}\r\n\r\n\tfunction cancel_election() external only_owner ongoing_election returns (bool){\r\n\t\tSTATE = election_state.CANCELLED;\r\n\t\telection_EndDate = now;\r\n\t\temit CancelledEvent(\"Election cancelled\", now);\r\n\t\treturn true;\r\n\t}\r\n\t\r\n\tfunction destruct_election() external only_owner returns (bool){\r\n\t    require(now >= election_EndDate, \"You can't destruct the contract, The election is still going\");\r\n\t    address payable _election_owner = address(uint160(election_owner));\r\n\t    selfdestruct(_election_owner);\r\n\t    return true;\r\n\t}\r\n\r\n}\r\n",
  "sourcePath": "C:\\Users\\GotBw\\Desktop\\New folder\\ElectionChain\\election-chain\\contracts\\election.sol",
  "compiler": {
    "name": "solc",
    "version": "0.5.16+commit.9c3226ce.Emscripten.clang"
  },
  "schemaVersion": "3.1.0",
  "updatedAt": "2020-05-04T03:37:01.661Z",
  "devdoc": {
    "methods": {}
  },
  "userdoc": {
    "methods": {}
  }
}